S00F00004E54495F4156522E73726563E2
S11300000C942A000C94D9020C9402030C942B0334
S11300100C9447000C9447000C9447000C94470040
S11300200C9447000C9447000C9447000C94470030
S11300300C9447000C9447000C9447000C94470020
S11300400C9447000C9447000C9447000C94470010
S11300500C94470011241FBECFE5D8E0DEBFCDBF0E
S113006010E0A0E6B0E0ECEAF6E002C005900D92E4
S1130070A039B107D9F720E0A0E9B0E001C01D9292
S1130080A639B207E1F70E94AB000C9454030C9418
S113009000001F93CF93DF93CDB7DEB72F970FB632
S11300A0F894DEBF0FBECDBF162F9FE0E0E6F0E070
S11300B0DE01119601900D929A95E1F78130A9F035
S11300C028F0823009F1833071F13BC060E083E0B5
S11300D00E94D201E1E0F0E0EC0FFD1FE10FF11D01
S11300E0608181E00E9457022CC060E082E00E949F
S11300F0D201E1E0F0E0EC0FFD1FE10FF11D6081A2
S113010081E00E9457021DC060E08DE00E94D20190
S1130110E1E0F0E0EC0FFD1FE10FF11D608181E0F3
S11301200E9457020EC060E08EE00E94D201E1E01E
S1130130F0E0EC0FFD1FE10FF11D608181E00E94F2
S113014057022F960FB6F894DEBF0FBECDBFDF91D6
S1130150CF911F91089578940E94C20181E00E947A
S1130160670263E081E00E947902C0E0D0E0CE0142
S11301700E9449002FEF89E698E121508040904089
S1130180E1F700C000002196F2CF982F969596953E
S113019096958770613009F455C020F0623009F4F7
S11301A0A1C008959130C1F028F0923039F1933014
S11301B0B9F108954AB321E030E0B90102C0660FF5
S11301C0771F8A95E2F7CB01942F982B9ABB9BB3A8
S11301D0809589238BBB089547B321E030E0B901B2
S11301E002C0660F771F8A95E2F7CB01942F982BF4
S11301F097BB98B38095892388BB089544B321E0C5
S113020030E0B90102C0660F771F8A95E2F7CB018F
S1130210942F982B94BB95B38095892385BB08951F
S113022041B321E030E0B90102C0660F771F8A951F
S1130230E2F7CB01942F982B91BB92B3809589233D
S113024082BB08959130C1F028F0923039F1933097
S1130250B9F108954AB321E030E0B90102C0660F54
S1130260771F8A95E2F7CB018095942F98239ABB48
S11302709BB389238BBB089547B321E030E0B901D8
S113028002C0660F771F8A95E2F7CB018095942F01
S1130290982397BB98B3892388BB089544B321E07E
S11302A030E0B90102C0660F771F8A95E2F7CB01EF
S11302B08095942F982394BB95B3892385BB089587
S11302C041B321E030E0B90102C0660F771F8A957F
S11302D0E2F7CB018095942F982391BB92B38923A5
S11302E082BB08959130C1F028F0923039F19330F7
S11302F0B9F108954AB321E030E0B90102C0660FB4
S1130300771F8A95E2F7CB01962F909594239ABB99
S11303109BB3892B8BBB089547B321E030E0B9012F
S113032002C0660F771F8A95E2F7CB01962F90954E
S1130330942397BB98B3892B88BB089544B321E0D9
S113034030E0B90102C0660F771F8A95E2F7CB014E
S1130350962F9095942394BB95B3892B85BB0895D0
S113036041B321E030E0B90102C0660F771F8A95DE
S1130370E2F7CB01962F9095942391BB92B3892BEE
S113038082BB0895CF93C0E009C0EC2FF0E0E1599F
S1130390FF4F60818C2F0E94C500CF5FC032A8F34D
S11303A0CF910895982F969596959695877061307C
S11303B0E1F5913099F028F09230E9F0933041F171
S11303C008954BB321E030E0B90102C0660F771FF6
S11303D08A95E2F7CB01842B8BBB089548B321E0C7
S11303E030E0B90102C0660F771F8A95E2F7CB01AE
S11303F0842B88BB089545B321E030E0B90102C0E5
S1130400660F771F8A95E2F7CB01842B85BB08958D
S113041042B321E030E0B90102C0660F771F8A952C
S1130420E2F7CB01842B82BB089561113FC0913068
S1130430A1F028F09230F9F0933059F108954BB3BC
S113044021E030E0B90102C0660F771F8A95E2F718
S1130450CB01809584238BBB089548B321E030E021
S1130460B90102C0660F771F8A95E2F7CB01809528
S1130470842388BB089545B321E030E0B90102C06C
S1130480660F771F8A95E2F7CB018095842385BB9D
S1130490089542B321E030E0B90102C0660F771F2E
S11304A08A95E2F7CB018095842382BB089581303D
S11304B041F028F0823039F0833039F008956BBB75
S11304C0089568BB089565BB089562BB08958130A3
S11304D041F018F0823049F008958BB780648BBFE7
S11304E008958BB780688BBF08958BB780628BBFEC
S11304F00895813049F120F0823009F449C008950B
S1130500613069F028F0623089F06330B1F0089509
S113051085B78E7F85BF85B78D7F85BF089585B7E5
S1130520816085BF85B78D7F85BF089585B78E7F30
S113053085BF85B7826085BF089585B7816085BF13
S113054085B7826085BF0895613069F028F0623014
S113055089F06330B1F0089585B78B7F85BF85B787
S1130560877F85BF089585B7846085BF85B7877FFA
S113057085BF089585B78B7F85BF85B7886085BFA4
S1130580089585B7846085BF85B7886085BF089561
S1130590623019F0633029F008C084B78F7B84BFC0
S11305A0089584B7806484BF089584B78F7B84BF23
S11305B008951F920F920FB60F9211242F933F9319
S11305C04F935F936F937F938F939F93AF93BF9357
S11305D0EF93FF93E0919400F0919500309709F028
S11305E00995FF91EF91BF91AF919F918F917F9169
S11305F06F915F914F913F912F910F900FBE0F908C
S11306001F9018951F920F920FB60F9211242F93DB
S11306103F934F935F936F937F938F939F93AF9386
S1130620BF93EF93FF93E0919200F0919300309782
S113063009F00995FF91EF91BF91AF919F918F912F
S11306407F916F915F914F913F912F910F900FBECA
S11306500F901F9018951F920F920FB60F921124AE
S11306602F933F934F935F936F937F938F939F93B6
S1130670AF93BF93EF93FF93E0919000F0919100BB
S1130680309709F00995FF91EF91BF91AF919F9138
S11306908F917F916F915F914F913F912F910F9027
S10F06A00FBE0F901F901895F894FFCF28
S11306AC0001020304050607101112131415170197
S11306BC0000000000000100000200000000000027
S11306CC000000000000000202020202020202000A
S9030000FC
